:1000000060C00000FEC3000029C400007FC00000E3
:100010007DC000007BC0000079C0000097C30000D5
:1000200075C0000073C0000071C000006FC0000008
:100030006DC000006BC0000069C0000067C0000018
:1000400043C4000063C00000F4C0000033C10000DE
:100050005DC000005BC0000059C0000057C0000038
:1000600055C0000053C0000002000000070002015C
:10007000000003040600000000000000000102046C
:10008000081020408001020408102001020408101A
:100090002004040404040404040202020202020311
:1000A000030303030300000000250028002B0000C9
:1000B000000000240027002A00001402A302030607
:1000C000060611241FBECFEFD8E0DEBFCDBF11E082
:1000D000A0E0B1E0E2EAFCE002C005900D92AA3592
:1000E000B107D9F723E0AAE5B1E001C01D92A03223
:1000F000B207E1F710E0C0ECD0E003C02297FE01A8
:10010000ACD5CA3BD107D1F7D6D3BFC579CFFC0157
:1001100024853585F901E05CFF4F8081918132961D
:1001200020813181821B930B8F7399270895FC01E5
:1001300084859585FC01E05CFF4F408151813296BA
:10014000208131814217530741F00190F081E02D69
:10015000E80FF91F808190E008958FEF9FEF0895D9
:10016000FC0184859585FC01E05CFF4F4081518155
:100170003296208131814217530779F0A081B181F5
:10018000A80FB91F8C91208131812F5F3F4F2F73B2
:1001900033273183208390E008958FEF9FEF0895F8
:1001A000FC0181A1882329F0A489B5898C9186FF5F
:1001B000FBCF11A20895CF93DF93FC0126853785ED
:1001C000D901A05CBF4F8D919C91119701968F73BF
:1001D0009927E901CE5BDF4F488159818417950744
:1001E000D9F30D90BC91A02DA20FB31F6C93A685DF
:1001F000B785A05CBF4F11969C938E93A689B78953
:100200002C9181E090E0078C02C0880F991F0A941E
:10021000E2F7282B2C9381E081A30488F589E02D57
:1002200080818064808381E090E0DF91CF910895A8
:1002300008951F920F920FB60F9211242F933F93A0
:100240004F938F939F93EF93FF938091C00082FD14
:100250001CC04091C600809100029091010201965D
:100260008F7399272091020230910302821793071E
:1002700071F0E0910002F0910102E054FE4F4083E2
:10028000909301028093000202C08091C600FF910A
:10029000EF919F918F914F913F912F910F900FBEB2
:1002A0000F901F9018958AE591E031DF892B09F0B6
:1002B000BFCF08951F920F920FB60F9211242F9364
:1002C0003F938F939F93EF93FF932091BC013091C5
:1002D000BD018091BE019091BF012817390731F40B
:1002E0008091C1008F7D8093C10014C0E091BE0158
:1002F000F091BF01E458FE4F20818091BE019091A2
:10030000BF0101968F7399279093BF018093BE011F
:100310002093C600FF91EF919F918F913F912F9174
:100320000F900FBE0F901F901895CF92DF92EF9213
:10033000FF92CF93DF93EC016A017B01411581EEBF
:10034000580761057105F1F0EC89FD8981E090E0C5
:1003500008A002C0880F991F0A94E2F7808360E02A
:1003600079E08DE390E0A701960153D42150310943
:10037000410951095695479537952795211580E1F3
:10038000380790F0EC89FD89108260E874E88EE10E
:1003900090E0A70196013DD421503109410951094E
:1003A0005695479537952795E889F9893083EA89E5
:1003B000FB89208319A2EE89FF89408181E090E0CA
:1003C0009C010C8C02C0220F331F0A94E2F7422BCF
:1003D0004083EE89FF8940819C010D8C02C0220F71
:1003E000331F0A94E2F7422B4083EE89FF89408154
:1003F0009C010E8C02C0220F331F0A94E2F7422B9D
:100400004083EE89FF8920810F8C02C0880F991FDD
:100410000A94E2F7809582238083DF91CF91FF9049
:10042000EF90DF90CF90089510925D0110925C01E3
:1004300088EE93E0A0E0B0E080935E0190935F01CE
:10044000A0936001B09361018FE091E090935B0114
:1004500080935A0180EC91E090936701809366014C
:100460008CE791E0909369018093680185EC90E0BE
:1004700090936B0180936A0184EC90E090936D01FE
:1004800080936C0180EC90E090936F0180936E01FB
:1004900081EC90E0909371018093700182EC90E088
:1004A000909373018093720186EC90E090937501B4
:1004B0008093740184E08093760183E080937701D8
:1004C00087E08093780185E08093790181E08093D3
:1004D0007A0110927B010895AF92BF92CF92DF9282
:1004E000EF92FF920F931F93CF93DF936C017B01E9
:1004F000C0E0D0E000E010E0F601EC0FFD1F4AE0A4
:1005000050E06281C701E9D05C016EE2C70169D0A9
:100510008A0D9B1D080F191F2196C330D10561F765
:100520004AE050E0F6016581C701D7D0800F911FE6
:10053000DF91CF911F910F91FF90EF90DF90CF90BF
:10054000BF90AF9008958FE191E090930502809362
:1005500004021092060210920702109208021092F2
:1005600009020895CF92DF92EF92FF920F931F93AB
:10057000CF93DF936C017A01EB01E60EF71E00E0EA
:1005800010E0CE15DF0561F06991D601ED91FC9187
:100590000190F081E02DC6010995080F191FF1CFD8
:1005A000C801DF91CF911F910F91FF90EF90DF90E5
:1005B000CF9008956115710581F0DB010D90002049
:1005C000E9F7AD0141505109461B570BDC01ED9194
:1005D000FC910280F381E02D099480E090E0089581
:1005E000E9CFDC01ED91FC910190F081E02D0994BF
:1005F0006AE0F7CF0F931F93CF93DF93EC01DADF1D
:100600008C01CE01F5DF800F911FDF91CF911F91FB
:100610000F9108958F929F92AF92BF92CF92DF92E7
:10062000EF92FF920F931F93CF93DF93CDB7DEB777
:10063000A1970FB6F894DEBF0FBECDBF7C01C42ECC
:10064000E52FCB01D22E19A221E02D1510F02AE0C2
:10065000D22E8E010F5D1F4F8D2C912CA12CB12C11
:100660006C2D7E2FA5019401D4D28C2DD29E8019A1
:100670001124015011098A3010F4805D01C0895C99
:10068000F8018083211531054105510521F0C22E65
:10069000E32FCA01E5CFB801C7018CDFA1960FB6E1
:1006A000F894DEBF0FBECDBFDF91CF911F910F91A8
:1006B000FF90EF90DF90CF90BF90AF909F908F9082
:1006C00008952115310541F4DC01ED91FC91019073
:1006D000F081E02D642F09949DCF9A01462F50E0C0
:1006E00060E070E0EECF813039F018F0823051F0E8
:1006F000089510926E00089580916F008D7F809311
:100700006F000895809170008D7F8093700081E06C
:100710008093B0008091B100887F84608093B100A5
:100720001092B3000895CF93C82F80910A018C13C3
:1007300007C0E8E6F0E084919FEF90930A0101C0C2
:100740008FEFD1DF60E08C2FCF91A5C11F920F9268
:100750000FB60F9211242F933F934F935F936F9394
:100760007F938F939F93AF93BF93EF93FF9380916A
:100770000D0290910E02A0910F02B0911002892BF0
:100780008A2B8B2B51F190910A02E0910B02F09190
:100790000C0280818927808380910D0290910E0246
:1007A000A0910F02B0911002181619061A061B0626
:1007B000BCF480910D0290910E02A0910F02B091B5
:1007C00010020197A109B10980930D0290930E02C6
:1007D000A0930F02B093100203C080910A01A3DF1F
:1007E000FF91EF91BF91AF919F918F917F916F9109
:1007F0005F914F913F912F910F900FBE0F901F90DF
:1008000018951F920F920FB60F9211242F933F93BA
:100810004F935F936F937F938F939F93AF93BF9308
:10082000EF93FF938091110290911202892B29F08E
:10083000E0911102F09112020995FF91EF91BF91A1
:10084000AF919F918F917F916F915F914F913F9168
:100850002F910F900FBE0F901F9018951F920F921F
:100860000FB60F9211242F933F934F935F936F9383
:100870007F938F939F93AF93BF93EF93FF93809159
:10088000130290911402892B29F0E0911302F09148
:1008900014020995FF91EF91BF91AF919F918F91B4
:1008A0007F916F915F914F913F912F910F900FBE6C
:1008B0000F901F90189552D09AD1C3E5D1E09DD1E9
:1008C0002097E9F3F0DCFBCF1F920F920FB60F9247
:1008D00011242F933F938F939F93AF93BF93809156
:1008E000160290911702A0911802B091190230914E
:1008F000150223E0230F2D3720F40196A11DB11D11
:1009000005C026E8230F0296A11DB11D20931502F4
:100910008093160290931702A0931802B0931902C5
:1009200080911A0290911B02A0911C02B0911D02AD
:100930000196A11DB11D80931A0290931B02A093F2
:100940001C02B0931D02BF91AF919F918F913F9177
:100950002F910F900FBE0F901F901895789484B52B
:10096000826084BD84B5816084BD85B5826085BDAB
:1009700085B5816085BDEEE6F0E080818160808391
:10098000E1E8F0E010828081826080838081816074
:100990008083E0E8F0E0808181608083E1EBF0E03B
:1009A000808184608083E0EBF0E0808181608083DF
:1009B000EAE7F0E0808184608083808182608083C8
:1009C0008081816080838081806880831092C100F3
:1009D0000895833081F028F4813099F08230A1F0BD
:1009E00008958630A9F08730B9F08430D1F4809131
:1009F00080008F7D03C0809180008F77809380007E
:100A0000089584B58F7702C084B58F7D84BD089525
:100A10008091B0008F7703C08091B0008F7D80936C
:100A2000B0000895CF93DF9390E0FC01E358FF4FAF
:100A30002491FC01EF56FF4F8491882349F190E007
:100A4000880F991FFC01E155FF4FA591B4918B557B
:100A50009F4FFC01C591D4919FB7611108C0F894D4
:100A60008C91209582238C93888182230AC06230E6
:100A700051F4F8948C91322F309583238C93888194
:100A8000822B888304C0F8948C91822B8C939FBF17
:100A9000DF91CF9108950F931F93CF93DF931F9210
:100AA000CDB7DEB7282F30E0F901E759FF4F849129
:100AB000F901E358FF4F1491F901EF56FF4F0491EC
:100AC0000023C1F0882319F0698383DF6981E02F57
:100AD000F0E0EE0FFF1FEB55FF4FA591B4919FB7CC
:100AE000F8948C91611103C01095812301C0812B72
:100AF0008C939FBF0F90DF91CF911F910F9108951D
:100B0000FC01E150FF4F108231962FEF3FEF318310
:100B10002083FC0111922A95E9F70895089540E891
:100B200055E260E070E08AE591E0FFCB0F931F9300
:100B3000CF93DF93EC018C0101501F4FF8018081AE
:100B400080FF22C08881811106C061E271E08AE5E0
:100B500091E046DD12C060E371E0CE018DD0892BBB
:100B600019F465E371E006C0BE018AE591E038DD65
:100B700065E471E08AE591E03DDD8FEFFE011192C1
:100B80008A95E9F7F8011082DF91CF911F910F91BB
:100B90000895CF93DF9300D0CDB7DEB76A3039F434
:100BA000FC01E150FF4F80818160808307C01A8281
:100BB00019826983BE016F5F7F4F53D00F900F90F2
:100BC000DF91CF910895CF93DF93EC018AE591E017
:100BD000C7DAFE01F3959183808397FD05C0682FE6
:100BE000CE01DF91CF91D5CFDF91CF9108958EE1E6
:100BF00092E095DF61E08DE015CF8EE192E0E3DFDA
:100C00008EE192E093CF8EE192E07ACF8EE192E096
:100C100085CFA1E21A2EAA1BBB1BFD010DC0AA1F86
:100C2000BB1FEE1FFF1FA217B307E407F50720F055
:100C3000A21BB30BE40BF50B661F771F881F991FD0
:100C40001A9469F760957095809590959B01AC0119
:100C5000BD01CF010895EE0FFF1F0590F491E02D27
:100C60000994FB01DC010D900020E9F71197019038
:100C70000D920020E1F70895FB01DC018D910190B8
:100C800080190110D9F3990B089510E0C0ECD0E061
:100C900003C0FE01E2DF2296C23CD107D1F7F894EF
:020CA000FFCF84
:100CA20000002003200001000000FF00000000DB24
:100CB20000B2028700B0009700D000000000006C74
:100CC2000261726475696E6F406E616E6F3E2000E4
:100CD20074657374005465737420636F6D6D616E17
:100CE20064203A29003A20636F6D6D616E64206E54
:0A0CF2006F7420666F756E640000D9
:00000001FF
